:100000000C9462000C948A000C948A000C948A0070
:100010000C948A000C948A000C948A000C948A0038
:100020000C948A000C948A000C948A000C948A0028
:100030000C948A000C948A000C948A000C948A0018
:100040000C945F030C948A000C941D060C94A0067B
:100050000C948A000C948A000C948A000C948A00F8
:100060000C948A000C948A000000000024002700F1
:100070002A0000000000250028002B0000000000DE
:1000800023002600290004040404040404040202DA
:100090000202020203030303030301020408102007
:1000A0004080010204081020010204081020000012
:1000B0000007000201000003040600000000000029
:1000C0000000530611241FBECFEFD8E0DEBFCDBF26
:1000D00011E0A0E0B1E0EAE0F2E102C005900D928B
:1000E000AE34B107D9F713E0AEE4B1E001C01D9220
:1000F000A034B107E1F710E0C4ECD0E004C02297CF
:10010000FE010E94FF08C23CD107C9F70E94C60643
:100110000C9403090C940000CF93DF93C0918F02DD
:10012000D091900286E060E00E9489041EBC0DB46C
:1001300007FEFDCF8EB51EBC0DB407FEFDCF8EB5FC
:1001400089E08EBD0DB407FEFDCF8EB5CEBD0DB4DA
:1001500007FEFDCF8EB580E090E04AE03BE0282F1F
:10016000FC01E35BFD4FE0814EBD0DB407FEFDCF0A
:100170005EB52EBD0DB407FEFDCF2EB53EBD0DB450
:1001800007FEFDCF2EB5EEBD0DB407FEFDCF2EB59B
:1001900001968633910519F788E08EBD0DB407FEF0
:1001A000FDCF8EB580EA8EBD0DB407FEFDCF8EB5B6
:1001B00080EA8EBD0DB407FEFDCF0EB405FCF9CF6D
:1001C0001EBC0DB407FEFDCF8EB58CE08EBD0DB408
:1001D00007FEFDCF8EB586E061E00E948904DF91C5
:1001E000CF910895CF93DF93C0919302D091940261
:1001F00086E060E00E94890484E08EBD0DB407FEB5
:10020000FDCF8EB584E08EBD0DB407FEFDCF8EB55B
:1002100086E061E00E94890486E060E00E94890433
:100220001EBC0DB407FEFDCF8EB51EBC0DB407FE7F
:10023000FDCF8EB584E08EBD0DB407FEFDCF8EB52B
:1002400081E08EBD0DB407FEFDCF8EB585E08EBD7D
:100250000DB407FEFDCF8EB51EBC0DB407FEFDCF5D
:100260008EB586E08EBD0DB407FEFDCF8EB58CE356
:100270008EBD0DB407FEFDCF8EB580E090E027E087
:1002800010C0FC01E25BFE4FE0812EBD0DB407FE05
:10029000FDCF3EB5EEBD0DB407FEFDCF3EB50196D8
:1002A0002197209771F787E08EBD0DB407FEFDCF33
:1002B0008EB58FEF8EBD0DB407FEFDCF8EB51EBC83
:1002C0000DB407FEFDCF8EB58CE08EBD0DB407FEDC
:1002D000FDCF8EB586E061E00E948904DF91CF9169
:1002E0000895CF93DF93C0918F02D091900286E062
:1002F00060E00E9489041EBC0DB407FEFDCF8EB5E0
:100300001EBC0DB407FEFDCF8EB589E08EBD0DB4C9
:1003100007FEFDCF8EB5CEBD0DB407FEFDCF8EB569
:1003200088E08EBD0DB407FEFDCF8EB580E58EBD95
:100330000DB407FEFDCF8EB565E070E080E090E083
:100340000E94E20320E030E05AE040EC9FEF822F71
:100350005EBD0DB407FEFDCF6EB58EBD0DB407FEBC
:10036000FDCF8EB54EBD0DB407FEFDCF8EB59EBD43
:100370000DB407FEFDCF8EB5F901E35BFD4F808321
:100380002F5F3F4F2633310511F780EA8EBD0DB444
:1003900007FEFDCF0EB405FCF9CF1EBC0DB407FE61
:1003A000FDCF8EB58CE08EBD0DB407FEFDCF8EB5B2
:1003B00086E061E00E948904DF91CF910895CF9398
:1003C000DF9383EA92E00E947105181619060CF07B
:1003D00090C083EA92E00E948D05909392028093F0
:1003E000910280919502813009F44FC0813038F03C
:1003F000823009F454C0833009F07BC060C0809122
:100400009102909192028635910549F087359105C8
:10041000C1F18335910509F06CC081E033C086E0FD
:1004200061E00E944A0486E061E00E944A0486E09E
:1004300060E00E9489041EBC0DB407FEFDCF8EB59E
:1004400082E08EBD0DB407FEFDCF8EB586E061E083
:100450000E94890464EF71E080E090E00E94E20372
:1004600080E090E0FC01E25BFE4F808301968F3FCD
:100470009105C1F790939402809393020E94F20039
:1004800036C083E08093950234C0809191029091B0
:1004900092029093900280938F0282E0F3CFE091DA
:1004A0008E02F0E08091910290919202E35BFD4F09
:1004B000808380918E028F5F80938E021AC080911C
:1004C0009102909192029093900280938F020E94E9
:1004D0007101C0E0D0E0FE01E35BFD4F608183EA83
:1004E00092E00E94CE052196C633D105A1F7109265
:1004F000950280918E02803461F560918F02709137
:10050000900283EA92E04AE050E00E94DF070E94F6
:100510008C0010928E02109295026091960270915A
:100520009702809198029091990224E13EEA47EC6B
:100530005EE30E940708609396027093970280938F
:1005400098029093990283EA92E060E071E00E9441
:10055000F207DF91CF91089583EA92E040E052ECF8
:1005600061E070E026E00E940D0583EA92E00E94BF
:10057000AB058AE061E00E944A048AE061E00E94E3
:10058000890486E061E00E944A0486E061E00E94FE
:1005900089048BE061E00E944A048CE060E00E94E4
:1005A0004A048DE061E00E944A0482E060E00E941B
:1005B0004A0480E58CBD8DB58EB56AEF70E080E0B1
:1005C00090E00E94E20386E060E00E9489041EBC85
:1005D0000DB407FEFDCF8EB582E08EBD0DB407FED3
:1005E000FDCF8EB586E061E00E94890464EF71E082
:1005F00080E090E00E94E20386E060E00E948904CF
:1006000080E192E08EBD0DB407FEFDCF2EB59EBDFC
:100610000DB407FEFDCF2EB58F5F803299F71EBC5B
:100620000DB407FEFDCF8EB588E08EBD0DB407FE7C
:10063000FDCF8EB586E061E00E948904109292029F
:1006400010929102109294021092930210928D02D5
:1006500010928E021092900210928F0210929502C8
:1006600080E090E0FC01E25BFE4F808301968F3FCB
:100670009105C1F790939402809393020E94F20037
:1006800083EA92E065E071E00E94F20783EA92E07B
:1006900062E271E00E94F20783EA92E063E271E0B5
:1006A0000E94F20783EA92E062E271E00E94F207A0
:1006B00064E670E080E090E00E94E20308951F92FB
:1006C0000F920FB60F9211242F933F938F939F9306
:1006D000AF93BF9380919E0290919F02A091A00240
:1006E000B091A1023091A2020196A11DB11D232F4C
:1006F0002D5F2D3720F02D570196A11DB11D2093A0
:10070000A20280939E0290939F02A093A002B093B6
:10071000A10280919A0290919B02A0919C02B091BB
:100720009D020196A11DB11D80939A0290939B0298
:10073000A0939C02B0939D02BF91AF919F918F9126
:100740003F912F910F900FBE0F901F9018957894A6
:1007500084B5826084BD84B5816084BD85B58260C6
:1007600085BD85B5816085BDEEE6F0E08081816064
:100770008083E1E8F0E01082808182608083808164
:1007800081608083E0E8F0E0808181608083E1EB3C
:10079000F0E0808184608083E0EBF0E08081816024
:1007A0008083EAE7F0E080818460808380818260DA
:1007B00080838081816080838081806880831092C3
:1007C000C1000895EF92FF920F931F93CF93DF9391
:1007D0007B018C013FB7F89480919A0290919B0223
:1007E000A0919C02B0919D0226B5A89B05C02F3F09
:1007F00019F00196A11DB11D3FBFBA2FA92F982F47
:100800008827820F911DA11DB11D52E0880F991FED
:10081000AA1FBB1F5A95D1F7EC0130C00E940508F2
:100820003FB7F89480919A0290919B02A0919C020C
:10083000B0919D0226B5A89B05C02F3F19F00196E7
:10084000A11DB11D3FBFBA2FA92F982F8827820F56
:10085000911DA11DB11D32E0880F991FAA1FBB1F5A
:100860003A95D1F78C1B9D0B885E9340B8F20894A3
:10087000E108F10801091109C851DC4FE114F10444
:100880000105110559F6DF91CF911F910F91FF904E
:10089000EF900895CF93DF93482F50E0CA0186561A
:1008A0009F4FFC0134914A575F4FFA01849188238E
:1008B00069F190E0880F991FFC01E859FF4FA5915D
:1008C000B491FC01EE58FF4FC591D491662351F4C9
:1008D0002FB7F8948C91932F909589238C938881CE
:1008E00089230BC0623061F42FB7F8948C91932F59
:1008F000909589238C938881832B88832FBF06C092
:100900009FB7F8948C91832B8C939FBFDF91CF91ED
:100910000895482F50E0CA0182559F4FFC01249151
:10092000CA0186569F4FFC0194914A575F4FFA01C6
:100930003491332309F440C0222351F1233071F064
:10094000243028F42130A1F0223011F514C02630D3
:10095000B1F02730C1F02430D9F404C08091800078
:100960008F7703C0809180008F7D8093800010C0BE
:1009700084B58F7702C084B58F7D84BD09C0809116
:10098000B0008F7703C08091B0008F7D8093B0005E
:10099000E32FF0E0EE0FFF1FEE58FF4FA591B4914B
:1009A0002FB7F894662321F48C919095892302C087
:1009B0008C91892B8C932FBF0895DC015C968C91D0
:1009C0005C97FD01E80FF11DE35AFF4F20815C9613
:1009D0008C915C9790E001968F7390705C968C93ED
:1009E0005C975696ED91FC91579720835096ED9128
:1009F000FC9151978081806480835B969C915B978A
:100A00005C968C915C97981739F45296ED91FC9115
:100A1000539780818F7D80830895DF92EF92FF92BC
:100A20000F931F93CF93DF93EC017A018B01D22EAA
:100A3000E889F98982E08083403081EE580780E0C0
:100A4000680780E07807A1F060E079E08DE390E04E
:100A5000A80197010E94DB082150304040405040DF
:100A6000569547953795279580E12030380798F0BF
:100A7000E889F989108260E874E88EE190E0A801C5
:100A800097010E94DB08215030404040504056956D
:100A9000479537952795EC85FD853083EE85FF8555
:100AA0002083188EEC89FD89D082EA89FB898081B8
:100AB00080618083EA89FB89808188608083EA89FC
:100AC000FB89808180688083EA89FB8980818F7DB2
:100AD0008083DF91CF911F910F91FF90EF90DF9076
:100AE0000895FC01218D828D30E0205C3F4F281B52
:100AF00031092F733070C9010895FC01918D828DE9
:100B0000981719F42FEF3FEF06C0828DE80FF11D03
:100B1000858D282F30E0C9010895DC0159969C91FC
:100B200059975A968C915A97981719F42FEF3FEFCF
:100B300010C05A968C915A97FD01E80FF11D958DC2
:100B40005A968C915A978F5F8F735A968C93292F50
:100B500030E0C9010895CF93DF93EC01888D88239D
:100B600061F419C08C9185FF0AC0E889F9898081F8
:100B700085FF05C0CE010E94DD04AA89BB898C9146
:100B800085FD05C0E889F989808186FD04C00FB61E
:100B900007FEE8CFF4CFDF91CF9108950F931F9315
:100BA000CF93DF93EC01062F9B8D8C8D981791F5D9
:100BB000E889F989808185FF2DC0EE89FF896083EE
:100BC000E889F9898081806480831DC00FB607FCA5
:100BD00008C0E889F989808185FF03C0CE010E94A1
:100BE000DD048C8D181791F38B8DFE01E80FF11D3C
:100BF000E35AFF4F00831B8FEA89FB898081806263
:100C0000808381E0888F81E090E0DF91CF911F9118
:100C10000F9108951B8D1F5F1F73E3CF86E996E048
:100C2000892B51F080E090E0892B31F00E949606EC
:100C3000882311F00E94000008951F920F920FB6B2
:100C40000F9211242F938F939F93EF93FF93E09133
:100C5000B302F091B402808182FD16C0E091B90226
:100C6000F091BA0220819091BC029F5F9F738091A6
:100C7000BD02981771F0E091BC02F0E0ED55FD4F18
:100C8000258F9093BC0205C0E091B902F091BA02A1
:100C9000E081FF91EF919F918F912F910F900FBE67
:100CA0000F901F9018951092A6021092A50288EE40
:100CB00093E0A0E0B0E08093A7029093A802A093F5
:100CC000A902B093AA0282E491E09093A4028093D7
:100CD000A30285EC90E09093B0028093AF0284EC85
:100CE00090E09093B2028093B10280EC90E09093F8
:100CF000B4028093B30281EC90E09093B6028093AB
:100D0000B50282EC90E09093B8028093B70286EC33
:100D100090E09093BA028093B9021092BC021092B4
:100D2000BD021092BE021092BF02089583EA92E0C3
:100D30000E94710520E0892B09F021E0822F08959F
:100D40001F920F920FB60F9211242F933F934F9340
:100D50005F936F937F938F939F93AF93BF93EF9323
:100D6000FF9383EA92E00E94DD04FF91EF91BF912F
:100D7000AF919F918F917F916F915F914F913F9133
:100D80002F910F900FBE0F901F901895CF93DF9368
:100D90000E94A7030E94AC02CEE0D6E00E94DF01D1
:100DA0002097E1F30E940E06F9CFCF92DF92EF92E7
:100DB000FF920F931F93CF93DF937C016B018A0106
:100DC000C0E0D0E00FC0D6016D916D01D701ED916B
:100DD000FC910190F081E02DC7010995C80FD91F42
:100DE000015010400115110571F7CE01DF91CF912F
:100DF0001F910F91FF90EF90DF90CF900895EF92A9
:100E0000FF920F931F938C01DC01ED91FC910190F7
:100E1000F081E02D6DE009957C01D801ED91FC9108
:100E20000190F081E02DC8016AE009959C012E0D2A
:100E30003F1DC9011F910F91FF90EF900895CF932F
:100E4000DF93EC016115710519F420E030E00FC06B
:100E5000DB010D900020E9F71197A61BB70BE88185
:100E6000F9810280F381E02DAD0109959C01C90152
:100E7000DF91CF9108954F925F927F928F929F92D0
:100E8000AF92BF92CF92DF92EF92FF920F931F9398
:100E9000DF93CF93CDB7DEB7A1970FB6F894DEBF3F
:100EA0000FBECDBF2C01742ECB01223008F42AE0F6
:100EB00019A231E2C32ED12CCC0EDD1E822E992434
:100EC000AA24BB24672D752FA50194010E94DB087D
:100ED00079018A01C801B701A50194010E94BC08EB
:100EE000472D461B0894C108D1084A3014F4405DD0
:100EF00001C0495CF6014083E114F10401051105CC
:100F000021F07E2C5F2DC801DDCFC201B6010E9409
:100F10001F07A1960FB6F894DEBF0FBECDBFCF91CD
:100F2000DF911F910F91FF90EF90DF90CF90BF90D6
:100F3000AF909F908F907F905F904F900895CF9249
:100F4000DF92EF92FF920F931F93CF93DF93EC0109
:100F50006A017B012115310541F4E881F981019095
:100F6000F081E02D642F09951FC02A303105D1F49E
:100F700077FF17C0E881F9810190F081E02D6DE2E3
:100F800009958C0144275527BA014C195D096E0952
:100F90007F09CE012AE00E943B079801280F391FE4
:100FA00004C02AE00E943B079C01C901DF91CF9158
:100FB0001F910F91FF90EF90DF90CF900895EF92E7
:100FC000FF920F931F937B019A010027F7FC009576
:100FD000102FB801A7010E949F071F910F91FF904A
:100FE000EF900895EF92FF920F931F937C010E9460
:100FF0001F078C01C7010E94FF06080F191FC801B7
:101000001F910F91FF90EF90089508955058BB27BE
:10101000AA270ED077C068D030F06DD020F031F420
:101020009F3F11F41EF45DC00EF4E095E7FB53C042
:10103000E92F79D080F3BA17620773078407950701
:1010400018F071F49EF591C00EF4E0950B2EBA2FB6
:10105000A02D0B01B90190010C01CA01A0011124BE
:10106000FF27591B99F0593F50F4503E68F11A166A
:10107000F040A22F232F342F4427585FF3CF4695FB
:1010800037952795A795F0405395C9F77EF41F161D
:10109000BA0B620B730B840BBAF09150A1F0FF0FE7
:1010A000BB1F661F771F881FC2F70EC0BA0F621FD3
:1010B000731F841F48F4879577956795B795F795C3
:1010C0009E3F08F0B3CF9395880F08F09927EE0F55
:1010D00097958795089597F99F6780E870E060E09D
:1010E00008959FEF80EC089500240A9416161706C1
:1010F00018060906089500240A9412161306140609
:1011000005060895092E0394000C11F4882352F06B
:10111000BB0F40F4BF2B11F460FF04C06F5F7F4F23
:101120008F4F9F4F089557FD9058440F551F59F00A
:101130005F3F71F04795880F97FB991F61F09F3FC4
:1011400079F087950895121613061406551FF2CFED
:101150004695F1DF08C0161617061806991FF1CF3D
:1011600086957105610508940895E894BB27662764
:101170007727CB0197F90895629FD001739FF00103
:10118000829FE00DF11D649FE00DF11D929FF00D17
:10119000839FF00D749FF00D659FF00D9927729F4E
:1011A000B00DE11DF91F639FB00DE11DF91FBD01D9
:1011B000CF0111240895A1E21A2EAA1BBB1BFD0129
:1011C0000DC0AA1FBB1FEE1FFF1FA217B307E40726
:1011D000F50720F0A21BB30BE40BF50B661F771F7E
:1011E000881F991F1A9469F760957095809590955E
:1011F0009B01AC01BD01CF010895EE0FFF1F0590CB
:0A120000F491E02D0994F894FFCF5B
:10120A00646F6E6500526561647920666F7220743E
:10121A006578742066696C6520646F776E6C6F619F
:10122A00640000506C656173652053656E642074B8
:10123A006865202E6D636D2066696C65200000006C
:0E124A000000CE05D50671058D057D05AB05AE
:00000001FF
